{
  "contractName": "HunterLabsToken3",
  "abi": [
    {
      "constant": true,
      "inputs": [],
      "name": "name",
      "outputs": [
        {
          "name": "",
          "type": "string"
        }
      ],
      "payable": false,
      "stateMutability": "view",
      "type": "function"
    },
    {
      "constant": true,
      "inputs": [],
      "name": "_BLOCKS_PER_READJUSTMENT_OF_SUPPLY",
      "outputs": [
        {
          "name": "",
          "type": "uint256"
        }
      ],
      "payable": false,
      "stateMutability": "view",
      "type": "function"
    },
    {
      "constant": true,
      "inputs": [],
      "name": "lastRewardEthBlockNumber",
      "outputs": [
        {
          "name": "",
          "type": "uint256"
        }
      ],
      "payable": false,
      "stateMutability": "view",
      "type": "function"
    },
    {
      "constant": true,
      "inputs": [],
      "name": "totalSupply",
      "outputs": [
        {
          "name": "",
          "type": "uint256"
        }
      ],
      "payable": false,
      "stateMutability": "view",
      "type": "function"
    },
    {
      "constant": true,
      "inputs": [],
      "name": "reward_amount",
      "outputs": [
        {
          "name": "",
          "type": "uint256"
        }
      ],
      "payable": false,
      "stateMutability": "view",
      "type": "function"
    },
    {
      "constant": true,
      "inputs": [],
      "name": "reward_pool_cut",
      "outputs": [
        {
          "name": "",
          "type": "uint256"
        }
      ],
      "payable": false,
      "stateMutability": "view",
      "type": "function"
    },
    {
      "constant": true,
      "inputs": [],
      "name": "rewardEra",
      "outputs": [
        {
          "name": "",
          "type": "uint256"
        }
      ],
      "payable": false,
      "stateMutability": "view",
      "type": "function"
    },
    {
      "constant": true,
      "inputs": [],
      "name": "z_holders_cut_pct",
      "outputs": [
        {
          "name": "",
          "type": "uint256"
        }
      ],
      "payable": false,
      "stateMutability": "view",
      "type": "function"
    },
    {
      "constant": true,
      "inputs": [],
      "name": "decimals",
      "outputs": [
        {
          "name": "",
          "type": "uint8"
        }
      ],
      "payable": false,
      "stateMutability": "view",
      "type": "function"
    },
    {
      "constant": true,
      "inputs": [],
      "name": "miners_cut",
      "outputs": [
        {
          "name": "",
          "type": "uint256"
        }
      ],
      "payable": false,
      "stateMutability": "view",
      "type": "function"
    },
    {
      "constant": true,
      "inputs": [],
      "name": "reward_pool_cut_pct",
      "outputs": [
        {
          "name": "",
          "type": "uint256"
        }
      ],
      "payable": false,
      "stateMutability": "view",
      "type": "function"
    },
    {
      "constant": true,
      "inputs": [],
      "name": "miners_cut_pct",
      "outputs": [
        {
          "name": "",
          "type": "uint256"
        }
      ],
      "payable": false,
      "stateMutability": "view",
      "type": "function"
    },
    {
      "constant": true,
      "inputs": [],
      "name": "maxSupplyForEra",
      "outputs": [
        {
          "name": "",
          "type": "uint256"
        }
      ],
      "payable": false,
      "stateMutability": "view",
      "type": "function"
    },
    {
      "constant": true,
      "inputs": [],
      "name": "_INFLATION_RATE",
      "outputs": [
        {
          "name": "",
          "type": "uint256"
        }
      ],
      "payable": false,
      "stateMutability": "view",
      "type": "function"
    },
    {
      "constant": true,
      "inputs": [],
      "name": "_INFLATION_RATE_BASIS",
      "outputs": [
        {
          "name": "",
          "type": "uint256"
        }
      ],
      "payable": false,
      "stateMutability": "view",
      "type": "function"
    },
    {
      "constant": true,
      "inputs": [],
      "name": "standard",
      "outputs": [
        {
          "name": "",
          "type": "string"
        }
      ],
      "payable": false,
      "stateMutability": "view",
      "type": "function"
    },
    {
      "constant": true,
      "inputs": [],
      "name": "tokensMinted",
      "outputs": [
        {
          "name": "",
          "type": "uint256"
        }
      ],
      "payable": false,
      "stateMutability": "view",
      "type": "function"
    },
    {
      "constant": true,
      "inputs": [],
      "name": "lastRewardTo",
      "outputs": [
        {
          "name": "",
          "type": "address"
        }
      ],
      "payable": false,
      "stateMutability": "view",
      "type": "function"
    },
    {
      "constant": true,
      "inputs": [
        {
          "name": "",
          "type": "address"
        }
      ],
      "name": "balanceOf",
      "outputs": [
        {
          "name": "",
          "type": "uint256"
        }
      ],
      "payable": false,
      "stateMutability": "view",
      "type": "function"
    },
    {
      "constant": false,
      "inputs": [],
      "name": "acceptOwnership",
      "outputs": [],
      "payable": false,
      "stateMutability": "nonpayable",
      "type": "function"
    },
    {
      "constant": true,
      "inputs": [],
      "name": "epochCount",
      "outputs": [
        {
          "name": "",
          "type": "uint256"
        }
      ],
      "payable": false,
      "stateMutability": "view",
      "type": "function"
    },
    {
      "constant": true,
      "inputs": [],
      "name": "_MAXIMUM_TARGET",
      "outputs": [
        {
          "name": "",
          "type": "uint256"
        }
      ],
      "payable": false,
      "stateMutability": "view",
      "type": "function"
    },
    {
      "constant": true,
      "inputs": [],
      "name": "miningTarget",
      "outputs": [
        {
          "name": "",
          "type": "uint256"
        }
      ],
      "payable": false,
      "stateMutability": "view",
      "type": "function"
    },
    {
      "constant": true,
      "inputs": [],
      "name": "challengeNumber",
      "outputs": [
        {
          "name": "",
          "type": "bytes32"
        }
      ],
      "payable": false,
      "stateMutability": "view",
      "type": "function"
    },
    {
      "constant": true,
      "inputs": [],
      "name": "owner",
      "outputs": [
        {
          "name": "",
          "type": "address"
        }
      ],
      "payable": false,
      "stateMutability": "view",
      "type": "function"
    },
    {
      "constant": true,
      "inputs": [],
      "name": "_MAXIMUM_DIFFICULTY",
      "outputs": [
        {
          "name": "",
          "type": "uint256"
        }
      ],
      "payable": false,
      "stateMutability": "view",
      "type": "function"
    },
    {
      "constant": true,
      "inputs": [],
      "name": "circulatingSupply",
      "outputs": [
        {
          "name": "",
          "type": "uint256"
        }
      ],
      "payable": false,
      "stateMutability": "view",
      "type": "function"
    },
    {
      "constant": true,
      "inputs": [],
      "name": "symbol",
      "outputs": [
        {
          "name": "",
          "type": "string"
        }
      ],
      "payable": false,
      "stateMutability": "view",
      "type": "function"
    },
    {
      "constant": true,
      "inputs": [
        {
          "name": "",
          "type": "address"
        }
      ],
      "name": "balanceOfRewardPool",
      "outputs": [
        {
          "name": "",
          "type": "uint256"
        }
      ],
      "payable": false,
      "stateMutability": "view",
      "type": "function"
    },
    {
      "constant": true,
      "inputs": [],
      "name": "miningDifficulty",
      "outputs": [
        {
          "name": "",
          "type": "uint256"
        }
      ],
      "payable": false,
      "stateMutability": "view",
      "type": "function"
    },
    {
      "constant": true,
      "inputs": [],
      "name": "_BLOCKS_PER_READJUSTMENT",
      "outputs": [
        {
          "name": "",
          "type": "uint256"
        }
      ],
      "payable": false,
      "stateMutability": "view",
      "type": "function"
    },
    {
      "constant": true,
      "inputs": [],
      "name": "_MINIMUM_DIFFICULTY",
      "outputs": [
        {
          "name": "",
          "type": "uint256"
        }
      ],
      "payable": false,
      "stateMutability": "view",
      "type": "function"
    },
    {
      "constant": true,
      "inputs": [],
      "name": "lastRewardAmount",
      "outputs": [
        {
          "name": "",
          "type": "uint256"
        }
      ],
      "payable": false,
      "stateMutability": "view",
      "type": "function"
    },
    {
      "constant": true,
      "inputs": [],
      "name": "latestDifficultyPeriodStarted",
      "outputs": [
        {
          "name": "",
          "type": "uint256"
        }
      ],
      "payable": false,
      "stateMutability": "view",
      "type": "function"
    },
    {
      "constant": true,
      "inputs": [],
      "name": "newOwner",
      "outputs": [
        {
          "name": "",
          "type": "address"
        }
      ],
      "payable": false,
      "stateMutability": "view",
      "type": "function"
    },
    {
      "constant": true,
      "inputs": [],
      "name": "_MINIMUM_TARGET",
      "outputs": [
        {
          "name": "",
          "type": "uint256"
        }
      ],
      "payable": false,
      "stateMutability": "view",
      "type": "function"
    },
    {
      "constant": true,
      "inputs": [
        {
          "name": "",
          "type": "address"
        },
        {
          "name": "",
          "type": "address"
        }
      ],
      "name": "allowance",
      "outputs": [
        {
          "name": "",
          "type": "uint256"
        }
      ],
      "payable": false,
      "stateMutability": "view",
      "type": "function"
    },
    {
      "constant": true,
      "inputs": [],
      "name": "z_holders_cut",
      "outputs": [
        {
          "name": "",
          "type": "uint256"
        }
      ],
      "payable": false,
      "stateMutability": "view",
      "type": "function"
    },
    {
      "constant": true,
      "inputs": [
        {
          "name": "",
          "type": "address"
        }
      ],
      "name": "balanceOfVesting",
      "outputs": [
        {
          "name": "",
          "type": "uint256"
        }
      ],
      "payable": false,
      "stateMutability": "view",
      "type": "function"
    },
    {
      "constant": false,
      "inputs": [
        {
          "name": "_newOwner",
          "type": "address"
        }
      ],
      "name": "transferOwnership",
      "outputs": [],
      "payable": false,
      "stateMutability": "nonpayable",
      "type": "function"
    },
    {
      "inputs": [
        {
          "name": "_initialSupply",
          "type": "uint256"
        }
      ],
      "payable": false,
      "stateMutability": "nonpayable",
      "type": "constructor"
    },
    {
      "payable": true,
      "stateMutability": "payable",
      "type": "fallback"
    },
    {
      "anonymous": false,
      "inputs": [
        {
          "indexed": true,
          "name": "_from",
          "type": "address"
        },
        {
          "indexed": true,
          "name": "_to",
          "type": "address"
        },
        {
          "indexed": false,
          "name": "_value",
          "type": "uint256"
        }
      ],
      "name": "Transfer",
      "type": "event"
    },
    {
      "anonymous": false,
      "inputs": [
        {
          "indexed": true,
          "name": "_owner",
          "type": "address"
        },
        {
          "indexed": true,
          "name": "_spender",
          "type": "address"
        },
        {
          "indexed": false,
          "name": "_value",
          "type": "uint256"
        }
      ],
      "name": "Approval",
      "type": "event"
    },
    {
      "anonymous": false,
      "inputs": [
        {
          "indexed": true,
          "name": "from",
          "type": "address"
        },
        {
          "indexed": false,
          "name": "reward_amount",
          "type": "uint256"
        },
        {
          "indexed": false,
          "name": "epochCount",
          "type": "uint256"
        },
        {
          "indexed": false,
          "name": "newChallengeNumber",
          "type": "bytes32"
        }
      ],
      "name": "Mint",
      "type": "event"
    },
    {
      "anonymous": false,
      "inputs": [
        {
          "indexed": true,
          "name": "_from",
          "type": "address"
        },
        {
          "indexed": true,
          "name": "_to",
          "type": "address"
        }
      ],
      "name": "OwnershipTransferred",
      "type": "event"
    },
    {
      "constant": false,
      "inputs": [
        {
          "name": "_to",
          "type": "address"
        },
        {
          "name": "_value",
          "type": "uint256"
        }
      ],
      "name": "transfer",
      "outputs": [
        {
          "name": "success",
          "type": "bool"
        }
      ],
      "payable": false,
      "stateMutability": "nonpayable",
      "type": "function"
    },
    {
      "constant": false,
      "inputs": [
        {
          "name": "_spender",
          "type": "address"
        },
        {
          "name": "_value",
          "type": "uint256"
        }
      ],
      "name": "approve",
      "outputs": [
        {
          "name": "success",
          "type": "bool"
        }
      ],
      "payable": false,
      "stateMutability": "nonpayable",
      "type": "function"
    },
    {
      "constant": false,
      "inputs": [
        {
          "name": "_from",
          "type": "address"
        },
        {
          "name": "_to",
          "type": "address"
        },
        {
          "name": "_value",
          "type": "uint256"
        }
      ],
      "name": "transferFrom",
      "outputs": [
        {
          "name": "success",
          "type": "bool"
        }
      ],
      "payable": false,
      "stateMutability": "nonpayable",
      "type": "function"
    },
    {
      "constant": true,
      "inputs": [
        {
          "name": "nonce",
          "type": "uint256"
        },
        {
          "name": "challenge_digest",
          "type": "bytes32"
        },
        {
          "name": "challenge_number",
          "type": "bytes32"
        }
      ],
      "name": "getMintDigest",
      "outputs": [
        {
          "name": "digesttest",
          "type": "bytes32"
        }
      ],
      "payable": false,
      "stateMutability": "view",
      "type": "function"
    },
    {
      "constant": true,
      "inputs": [
        {
          "name": "nonce",
          "type": "uint256"
        },
        {
          "name": "challenge_digest",
          "type": "bytes32"
        },
        {
          "name": "challenge_number",
          "type": "bytes32"
        },
        {
          "name": "testTarget",
          "type": "uint256"
        }
      ],
      "name": "checkMintSolution",
      "outputs": [
        {
          "name": "success",
          "type": "bool"
        }
      ],
      "payable": false,
      "stateMutability": "view",
      "type": "function"
    },
    {
      "constant": false,
      "inputs": [
        {
          "name": "nonce",
          "type": "uint256"
        },
        {
          "name": "challenge_digest",
          "type": "bytes32"
        }
      ],
      "name": "mint",
      "outputs": [
        {
          "name": "success",
          "type": "bool"
        }
      ],
      "payable": false,
      "stateMutability": "nonpayable",
      "type": "function"
    },
    {
      "constant": true,
      "inputs": [],
      "name": "getChallengeNumber",
      "outputs": [
        {
          "name": "",
          "type": "bytes32"
        }
      ],
      "payable": false,
      "stateMutability": "view",
      "type": "function"
    },
    {
      "constant": true,
      "inputs": [],
      "name": "getMiningDifficulty",
      "outputs": [
        {
          "name": "",
          "type": "uint256"
        }
      ],
      "payable": false,
      "stateMutability": "view",
      "type": "function"
    },
    {
      "constant": true,
      "inputs": [],
      "name": "getMiningTarget",
      "outputs": [
        {
          "name": "",
          "type": "uint256"
        }
      ],
      "payable": false,
      "stateMutability": "view",
      "type": "function"
    },
    {
      "constant": true,
      "inputs": [],
      "name": "getMiningReward",
      "outputs": [
        {
          "name": "",
          "type": "uint256"
        }
      ],
      "payable": false,
      "stateMutability": "view",
      "type": "function"
    },
    {
      "constant": true,
      "inputs": [],
      "name": "getTotalSupply",
      "outputs": [
        {
          "name": "",
          "type": "uint256"
        }
      ],
      "payable": false,
      "stateMutability": "view",
      "type": "function"
    }
  ],
  "bytecode": "0x60806040526040518060400160405280601081526020017f48756e7465726c61627320546f6b656e0000000000000000000000000000000081525060029080519060200190620000519291906200073c565b506040518060400160405280600381526020017f484c540000000000000000000000000000000000000000000000000000000000815250600390805190602001906200009f9291906200073c565b506040518060400160405280601581526020017f48756e7465726c61627320546f6b656e2076322e30000000000000000000000081525060049080519060200190620000ed9291906200073c565b506008600560006101000a81548160ff021916908360ff160217905550600560009054906101000a900460ff1660ff16600a0a600a026006556001600855610400600b55600a600c556064600d556103e8600e556000600f556000601055600060115562000187606462000173600a6006546200037b60201b620020241790919060201c565b620003ab60201b620020041790919060201c565b601255620001c16064620001ad604b6008546200037b60201b620020241790919060201c565b620003ab60201b620020041790919060201c565b601355620001fb6064620001e7600f6008546200037b60201b620020241790919060201c565b620003ab60201b620020041790919060201c565b60145562000235606462000221600a6008546200037b60201b620020241790919060201c565b620003ab60201b620020041790919060201c565b601555620100006016557d04000000000000000000000000000000000000000000000000000000000060175560016019556036601a556000601b60006101000a81548160ff0219169083151502179055503480156200029357600080fd5b5060405160208062002b4583398101806040526020811015620002b557600080fd5b8101908080519060200190929190505050336000806101000a81548173ffffffffffffffffffffffffffffffffffffffff021916908373ffffffffffffffffffffffffffffffffffffffff160217905550601b60009054906101000a900460ff16156200032157600080fd5b6001601b60006101000a81548160ff02191690831515021790555060006023819055506000601e8190555060006007819055506017546018819055504360098190555062000374620003cd60201b60201c565b50620007eb565b6000818302905060008314806200039b5750818382816200039857fe5b04145b620003a557600080fd5b92915050565b6000808211620003ba57600080fd5b818381620003c457fe5b04905092915050565b620003ea6001600a546200047f60201b620020511790919060201c565b600a819055506000600b54600a54816200040057fe5b0614156200041957620004186200049a60201b60201c565b5b6000600c54600a54816200042957fe5b0614156200047257600a600d541062000461576200045a600854600d546200069160201b6200228b1790919060201c565b600d819055505b62000471620006ac60201b60201c565b5b6001430340601d81905550565b60008183019050828110156200049457600080fd5b92915050565b6000600954430390506000600b5490506000819050808310156200058a576000620004ee84620004da6064856200037b60201b620020241790919060201c565b620003ab60201b620020041790919060201c565b90506000620005286103e8620005146064856200069160201b6200228b1790919060201c565b6200071e60201b620023021790919060201c565b90506200057c6200056582620005516107d0601854620003ab60201b620020041790919060201c565b6200037b60201b620020241790919060201c565b6018546200069160201b6200228b1790919060201c565b601881905550505062000657565b6000620005c082620005ac6064876200037b60201b620020241790919060201c565b620003ab60201b620020041790919060201c565b90506000620005fa6103e8620005e66064856200069160201b6200228b1790919060201c565b6200071e60201b620023021790919060201c565b90506200064e6200063782620006236107d0601854620003ab60201b620020041790919060201c565b6200037b60201b620020241790919060201c565b6018546200047f60201b620020511790919060201c565b60188190555050505b43600981905550601654601854101562000675576016546018819055505b60175460185411156200068c576017546018819055505b505050565b600082821115620006a157600080fd5b818303905092915050565b60075460068190555062000709620006f2600e54620006de600d546007546200037b60201b620020241790919060201c565b620003ab60201b620020041790919060201c565b6007546200047f60201b620020511790919060201c565b60078190555060065460075403600681905550565b600081831115620007325781905062000736565b8290505b92915050565b828054600181600116156101000203166002900490600052602060002090601f016020900481019282601f106200077f57805160ff1916838001178555620007b0565b82800160010185558215620007b0579182015b82811115620007af57825182559160200191906001019062000792565b5b509050620007bf9190620007c3565b5090565b620007e891905b80821115620007e4576000816000905550600101620007ca565b5090565b90565b61234a80620007fb6000396000f3fe6080604052600436106102e45760003560e01c806370a0823111610190578063a9059cbb116100dc578063cb9ae70711610095578063dd62ed3e1161006f578063dd62ed3e14610e8f578063ef1a325c14610f14578063f11d65cd14610f3f578063f2fde38b14610fa4576102e4565b8063cb9ae70714610de2578063d4ee1d9014610e0d578063dc6e9cf914610e64576102e4565b8063a9059cbb14610c98578063b40b9bb614610d0b578063b5ade81b14610d36578063b783b0ad14610d61578063bafedcaa14610d8c578063c4e41b2214610db7576102e4565b80638ae0368b116101495780639358928b116101235780639358928b14610b1557806395d89b4114610b4057806397566aa014610bd0578063a4575c9d14610c33576102e4565b80638ae0368b14610a685780638da5cb5b14610a9357806390d4bee514610aea576102e4565b806370a08231146108fa57806379ba50971461095f57806381269a5614610976578063829965cc146109e757806387a2a9d614610a125780638a769d3514610a3d576102e4565b8063313ce5671161024f5780634f66cfb811610208578063592afc03116101e2578063592afc03146107bd5780635a3b7e42146107e85780636de9f32b146108785780636fd396d6146108a3576102e4565b80634f66cfb81461073c5780634fa972e11461076757806356bed58214610792576102e4565b8063313ce5671461063457806332e99708146106655780634091e26114610690578063490203a7146106bb57806349f24fca146106e65780634ef3762814610711576102e4565b806318160ddd116102a157806318160ddd146104ca5780632381a60e146104f557806323b872dd1461052057806325369fb1146105b35780632d38bf7a146105de5780632d92fe6814610609576102e4565b806306fdde03146102e9578063095ea7b31461037957806311591c65146103ec578063163aa00d1461041757806317da485f146104425780631801fbe51461046d575b600080fd5b3480156102f557600080fd5b506102fe610ff5565b6040518080602001828103825283818151815260200191508051906020019080838360005b8381101561033e578082015181840152602081019050610323565b50505050905090810190601f16801561036b5780820380516001836020036101000a031916815260200191505b509250505060405180910390f35b34801561038557600080fd5b506103d26004803603604081101561039c57600080fd5b81019080803573ffffffffffffffffffffffffffffffffffffffff16906020019092919080359060200190929190505050611093565b604051808215151515815260200191505060405180910390f35b3480156103f857600080fd5b50610401611185565b6040518082815260200191505060405180910390f35b34801561042357600080fd5b5061042c61118b565b6040518082815260200191505060405180910390f35b34801561044e57600080fd5b50610457611191565b6040518082815260200191505060405180910390f35b34801561047957600080fd5b506104b06004803603604081101561049057600080fd5b8101908080359060200190929190803590602001909291905050506111af565b604051808215151515815260200191505060405180910390f35b3480156104d657600080fd5b506104df6115f8565b6040518082815260200191505060405180910390f35b34801561050157600080fd5b5061050a6115fe565b6040518082815260200191505060405180910390f35b34801561052c57600080fd5b506105996004803603606081101561054357600080fd5b81019080803573ffffffffffffffffffffffffffffffffffffffff169060200190929190803573ffffffffffffffffffffffffffffffffffffffff16906020019092919080359060200190929190505050611604565b604051808215151515815260200191505060405180910390f35b3480156105bf57600080fd5b506105c861186f565b6040518082815260200191505060405180910390f35b3480156105ea57600080fd5b506105f3611875565b6040518082815260200191505060405180910390f35b34801561061557600080fd5b5061061e61187b565b6040518082815260200191505060405180910390f35b34801561064057600080fd5b50610649611881565b604051808260ff1660ff16815260200191505060405180910390f35b34801561067157600080fd5b5061067a611894565b6040518082815260200191505060405180910390f35b34801561069c57600080fd5b506106a561189e565b6040518082815260200191505060405180910390f35b3480156106c757600080fd5b506106d06118a4565b6040518082815260200191505060405180910390f35b3480156106f257600080fd5b506106fb6118d4565b6040518082815260200191505060405180910390f35b34801561071d57600080fd5b506107266118da565b6040518082815260200191505060405180910390f35b34801561074857600080fd5b506107516118e4565b6040518082815260200191505060405180910390f35b34801561077357600080fd5b5061077c6118ea565b6040518082815260200191505060405180910390f35b34801561079e57600080fd5b506107a76118f0565b6040518082815260200191505060405180910390f35b3480156107c957600080fd5b506107d26118f6565b6040518082815260200191505060405180910390f35b3480156107f457600080fd5b506107fd6118fc565b6040518080602001828103825283818151815260200191508051906020019080838360005b8381101561083d578082015181840152602081019050610822565b50505050905090810190601f16801561086a5780820380516001836020036101000a031916815260200191505b509250505060405180910390f35b34801561088457600080fd5b5061088d61199a565b6040518082815260200191505060405180910390f35b3480156108af57600080fd5b506108b86119a0565b604051808273ffffffffffffffffffffffffffffffffffffffff1673ffffffffffffffffffffffffffffffffffffffff16815260200191505060405180910390f35b34801561090657600080fd5b506109496004803603602081101561091d57600080fd5b81019080803573ffffffffffffffffffffffffffffffffffffffff1690602001909291905050506119c6565b6040518082815260200191505060405180910390f35b34801561096b57600080fd5b506109746119de565b005b34801561098257600080fd5b506109cd6004803603608081101561099957600080fd5b8101908080359060200190929190803590602001909291908035906020019092919080359060200190929190505050611b7b565b604051808215151515815260200191505060405180910390f35b3480156109f357600080fd5b506109fc611c04565b6040518082815260200191505060405180910390f35b348015610a1e57600080fd5b50610a27611c0a565b6040518082815260200191505060405180910390f35b348015610a4957600080fd5b50610a52611c10565b6040518082815260200191505060405180910390f35b348015610a7457600080fd5b50610a7d611c16565b6040518082815260200191505060405180910390f35b348015610a9f57600080fd5b50610aa8611c1c565b604051808273ffffffffffffffffffffffffffffffffffffffff1673ffffffffffffffffffffffffffffffffffffffff16815260200191505060405180910390f35b348015610af657600080fd5b50610aff611c41565b6040518082815260200191505060405180910390f35b348015610b2157600080fd5b50610b2a611c47565b6040518082815260200191505060405180910390f35b348015610b4c57600080fd5b50610b55611c4d565b6040518080602001828103825283818151815260200191508051906020019080838360005b83811015610b95578082015181840152602081019050610b7a565b50505050905090810190601f168015610bc25780820380516001836020036101000a031916815260200191505b509250505060405180910390f35b348015610bdc57600080fd5b50610c1d60048036036060811015610bf357600080fd5b81019080803590602001909291908035906020019092919080359060200190929190505050611ceb565b6040518082815260200191505060405180910390f35b348015610c3f57600080fd5b50610c8260048036036020811015610c5657600080fd5b81019080803573ffffffffffffffffffffffffffffffffffffffff169060200190929190505050611d61565b6040518082815260200191505060405180910390f35b348015610ca457600080fd5b50610cf160048036036040811015610cbb57600080fd5b81019080803573ffffffffffffffffffffffffffffffffffffffff16906020019092919080359060200190929190505050611d79565b604051808215151515815260200191505060405180910390f35b348015610d1757600080fd5b50610d20611ed0565b6040518082815260200191505060405180910390f35b348015610d4257600080fd5b50610d4b611ed6565b6040518082815260200191505060405180910390f35b348015610d6d57600080fd5b50610d76611edc565b6040518082815260200191505060405180910390f35b348015610d9857600080fd5b50610da1611ee2565b6040518082815260200191505060405180910390f35b348015610dc357600080fd5b50610dcc611ee8565b6040518082815260200191505060405180910390f35b348015610dee57600080fd5b50610df7611ef2565b6040518082815260200191505060405180910390f35b348015610e1957600080fd5b50610e22611ef8565b604051808273ffffffffffffffffffffffffffffffffffffffff1673ffffffffffffffffffffffffffffffffffffffff16815260200191505060405180910390f35b348015610e7057600080fd5b50610e79611f1e565b6040518082815260200191505060405180910390f35b348015610e9b57600080fd5b50610efe60048036036040811015610eb257600080fd5b81019080803573ffffffffffffffffffffffffffffffffffffffff169060200190929190803573ffffffffffffffffffffffffffffffffffffffff169060200190929190505050611f24565b6040518082815260200191505060405180910390f35b348015610f2057600080fd5b50610f29611f49565b6040518082815260200191505060405180910390f35b348015610f4b57600080fd5b50610f8e60048036036020811015610f6257600080fd5b81019080803573ffffffffffffffffffffffffffffffffffffffff169060200190929190505050611f4f565b6040518082815260200191505060405180910390f35b348015610fb057600080fd5b50610ff360048036036020811015610fc757600080fd5b81019080803573ffffffffffffffffffffffffffffffffffffffff169060200190929190505050611f67565b005b60028054600181600116156101000203166002900480601f01602080910402602001604051908101604052809291908181526020018280546001816001161561010002031660029004801561108b5780601f106110605761010080835404028352916020019161108b565b820191906000526020600020905b81548152906001019060200180831161106e57829003601f168201915b505050505081565b600081602960003373ffffffffffffffffffffffffffffffffffffffff1673ffffffffffffffffffffffffffffffffffffffff16815260200190815260200160002060008573ffffffffffffffffffffffffffffffffffffffff1673ffffffffffffffffffffffffffffffffffffffff168152602001908152602001600020819055508273ffffffffffffffffffffffffffffffffffffffff163373ffffffffffffffffffffffffffffffffffffffff167f8c5be1e5ebec7d5bd14f71427d1e84f3dd0314c0f7b2291e5b200ac8c7c3b925846040518082815260200191505060405180910390a36001905092915050565b600c5481565b60225481565b60006111aa60185460175461200490919063ffffffff16565b905090565b600080601d543385604051602001808481526020018373ffffffffffffffffffffffffffffffffffffffff1673ffffffffffffffffffffffffffffffffffffffff1660601b8152601401828152602001935050505060405160208183030381529060405280519060200120905082811461122857600080fd5b6018548160001c111561123a57600080fd5b600060246000601d5481526020019081526020016000205490508160246000601d548152602001908152602001600020819055506000801b811461127d57600080fd5b6112856118a4565b6012819055506112b460646112a6600a60125461202490919063ffffffff16565b61200490919063ffffffff16565b6011819055506112f76112e660646112d8604b60125461202490919063ffffffff16565b61200490919063ffffffff16565b600f5461205190919063ffffffff16565b600f8190555061133a611329606461131b600f60125461202490919063ffffffff16565b61200490919063ffffffff16565b60105461205190919063ffffffff16565b601081905550611394600f54602660003073ffffffffffffffffffffffffffffffffffffffff1673ffffffffffffffffffffffffffffffffffffffff1681526020019081526020016000205461205190919063ffffffff16565b602660003073ffffffffffffffffffffffffffffffffffffffff1673ffffffffffffffffffffffffffffffffffffffff1681526020019081526020016000208190555061142b601054602760003073ffffffffffffffffffffffffffffffffffffffff1673ffffffffffffffffffffffffffffffffffffffff1681526020019081526020016000205461205190919063ffffffff16565b602760003073ffffffffffffffffffffffffffffffffffffffff1673ffffffffffffffffffffffffffffffffffffffff168152602001908152602001600020819055506114c2601154602560003373ffffffffffffffffffffffffffffffffffffffff1673ffffffffffffffffffffffffffffffffffffffff1681526020019081526020016000205461205190919063ffffffff16565b602560003373ffffffffffffffffffffffffffffffffffffffff1673ffffffffffffffffffffffffffffffffffffffff1681526020019081526020016000208190555061151c60125460235461205190919063ffffffff16565b6023819055506023546007540160078190555033602060006101000a81548173ffffffffffffffffffffffffffffffffffffffff021916908373ffffffffffffffffffffffffffffffffffffffff1602179055506011546021819055504360228190555061158861206b565b3373ffffffffffffffffffffffffffffffffffffffff167fcf6fbb9dcea7d07263ab4f5c3a92f53af33dffc421d9d121e1c74b307e68189d601254600a54601d5460405180848152602001838152602001828152602001935050505060405180910390a260019250505092915050565b60065481565b60125481565b6000602560008573ffffffffffffffffffffffffffffffffffffffff1673ffffffffffffffffffffffffffffffffffffffff1681526020019081526020016000205482111561165257600080fd5b602960008573ffffffffffffffffffffffffffffffffffffffff1673ffffffffffffffffffffffffffffffffffffffff16815260200190815260200160002060003373ffffffffffffffffffffffffffffffffffffffff1673ffffffffffffffffffffffffffffffffffffffff168152602001908152602001600020548211156116db57600080fd5b81602560008673ffffffffffffffffffffffffffffffffffffffff1673ffffffffffffffffffffffffffffffffffffffff1681526020019081526020016000206000828254039250508190555081602560008573ffffffffffffffffffffffffffffffffffffffff1673ffffffffffffffffffffffffffffffffffffffff1681526020019081526020016000206000828254019250508190555081602960008673ffffffffffffffffffffffffffffffffffffffff1673ffffffffffffffffffffffffffffffffffffffff16815260200190815260200160002060003373ffffffffffffffffffffffffffffffffffffffff1673ffffffffffffffffffffffffffffffffffffffff168152602001908152602001600020600082825403925050819055508273ffffffffffffffffffffffffffffffffffffffff168473ffffffffffffffffffffffffffffffffffffffff167fddf252ad1be2c89b69c2b068fc378daa952ba7f163c4a11628f55a4df523b3ef846040518082815260200191505060405180910390a3600190509392505050565b600f5481565b601e5481565b60145481565b600560009054906101000a900460ff1681565b6000601854905090565b60115481565b60006118cf60646118c1600a60065461202490919063ffffffff16565b61200490919063ffffffff16565b905090565b60135481565b6000601d54905090565b60155481565b601f5481565b600d5481565b600e5481565b60048054600181600116156101000203166002900480601f0160208091040260200160405190810160405280929190818152602001828054600181600116156101000203166002900480156119925780601f1061196757610100808354040283529160200191611992565b820191906000526020600020905b81548152906001019060200180831161197557829003601f168201915b505050505081565b60235481565b602060009054906101000a900473ffffffffffffffffffffffffffffffffffffffff1681565b60256020528060005260406000206000915090505481565b600160009054906101000a900473ffffffffffffffffffffffffffffffffffffffff1673ffffffffffffffffffffffffffffffffffffffff163373ffffffffffffffffffffffffffffffffffffffff1614611a3857600080fd5b600160009054906101000a900473ffffffffffffffffffffffffffffffffffffffff1673ffffffffffffffffffffffffffffffffffffffff166000809054906101000a900473ffffffffffffffffffffffffffffffffffffffff1673ffffffffffffffffffffffffffffffffffffffff167f8be0079c531659141344cd1fd0a4f28419497f9722a3daafe3b4186f6b6457e060405160405180910390a3600160009054906101000a900473ffffffffffffffffffffffffffffffffffffffff166000806101000a81548173ffffffffffffffffffffffffffffffffffffffff021916908373ffffffffffffffffffffffffffffffffffffffff1602179055506000600160006101000a81548173ffffffffffffffffffffffffffffffffffffffff021916908373ffffffffffffffffffffffffffffffffffffffff160217905550565b600080833387604051602001808481526020018373ffffffffffffffffffffffffffffffffffffffff1673ffffffffffffffffffffffffffffffffffffffff1660601b81526014018281526020019350505050604051602081830303815290604052805190602001209050828160001c1115611bf657600080fd5b848114915050949350505050565b600a5481565b60175481565b60185481565b601d5481565b6000809054906101000a900473ffffffffffffffffffffffffffffffffffffffff1681565b601a5481565b60075481565b60038054600181600116156101000203166002900480601f016020809104026020016040519081016040528092919081815260200182805460018160011615610100020316600290048015611ce35780601f10611cb857610100808354040283529160200191611ce3565b820191906000526020600020905b815481529060010190602001808311611cc657829003601f168201915b505050505081565b600080823386604051602001808481526020018373ffffffffffffffffffffffffffffffffffffffff1673ffffffffffffffffffffffffffffffffffffffff1660601b81526014018281526020019350505050604051602081830303815290604052805190602001209050809150509392505050565b60266020528060005260406000206000915090505481565b600081602560003373ffffffffffffffffffffffffffffffffffffffff1673ffffffffffffffffffffffffffffffffffffffff168152602001908152602001600020541015611dc757600080fd5b81602560003373ffffffffffffffffffffffffffffffffffffffff1673ffffffffffffffffffffffffffffffffffffffff1681526020019081526020016000206000828254039250508190555081602560008573ffffffffffffffffffffffffffffffffffffffff1673ffffffffffffffffffffffffffffffffffffffff168152602001908152602001600020600082825401925050819055508273ffffffffffffffffffffffffffffffffffffffff163373ffffffffffffffffffffffffffffffffffffffff167fddf252ad1be2c89b69c2b068fc378daa952ba7f163c4a11628f55a4df523b3ef846040518082815260200191505060405180910390a36001905092915050565b601c5481565b600b5481565b60195481565b60215481565b6000600654905090565b60095481565b600160009054906101000a900473ffffffffffffffffffffffffffffffffffffffff1681565b60165481565b6029602052816000526040600020602052806000526040600020600091509150505481565b60105481565b60276020528060005260406000206000915090505481565b6000809054906101000a900473ffffffffffffffffffffffffffffffffffffffff1673ffffffffffffffffffffffffffffffffffffffff163373ffffffffffffffffffffffffffffffffffffffff1614611fc057600080fd5b80600160006101000a81548173ffffffffffffffffffffffffffffffffffffffff021916908373ffffffffffffffffffffffffffffffffffffffff16021790555050565b600080821161201257600080fd5b81838161201b57fe5b04905092915050565b60008183029050600083148061204257508183828161203f57fe5b04145b61204b57600080fd5b92915050565b600081830190508281101561206557600080fd5b92915050565b6120816001600a5461205190919063ffffffff16565b600a819055506000600b54600a548161209657fe5b0614156120a6576120a56120fa565b5b6000600c54600a54816120b557fe5b0614156120ed57600a600d54106120e4576120dd600854600d5461228b90919063ffffffff16565b600d819055505b6120ec6122a5565b5b6001430340601d81905550565b6000600954430390506000600b5490506000819050808310156121b757600061213f8461213160648561202490919063ffffffff16565b61200490919063ffffffff16565b9050600061216b6103e861215d60648561228b90919063ffffffff16565b61230290919063ffffffff16565b90506121aa6121998261218b6107d060185461200490919063ffffffff16565b61202490919063ffffffff16565b60185461228b90919063ffffffff16565b6018819055505050612253565b60006121df826121d160648761202490919063ffffffff16565b61200490919063ffffffff16565b9050600061220b6103e86121fd60648561228b90919063ffffffff16565b61230290919063ffffffff16565b905061224a6122398261222b6107d060185461200490919063ffffffff16565b61202490919063ffffffff16565b60185461205190919063ffffffff16565b60188190555050505b436009819055506016546018541015612270576016546018819055505b6017546018541115612286576017546018819055505b505050565b60008282111561229a57600080fd5b818303905092915050565b6007546006819055506122ed6122dc600e546122ce600d5460075461202490919063ffffffff16565b61200490919063ffffffff16565b60075461205190919063ffffffff16565b60078190555060065460075403600681905550565b60008183111561231457819050612318565b8290505b9291505056fea165627a7a723058208a3861d3bfc83ecf7d5a940970ef4d168e75506de5b7c342f6a82180be04f79c0029",
  "source": "pragma solidity >=0.4.21 <0.6.0;\n\n\nlibrary SafeMath {\n\n    function add(uint a, uint b) internal pure returns (uint c) {\n\n        c = a + b;\n\n        require(c >= a);\n\n    }\n\n    function sub(uint a, uint b) internal pure returns (uint c) {\n\n        require(b <= a);\n\n        c = a - b;\n\n    }\n\n    function mul(uint a, uint b) internal pure returns (uint c) {\n\n        c = a * b;\n\n        require(a == 0 || c / a == b);\n\n    }\n\n    function div(uint a, uint b) internal pure returns (uint c) {\n\n        require(b > 0);\n\n        c = a / b;\n\n    }\n\n}\n\nlibrary ExtendedMath {\n\n\n    //return the smaller of the two inputs (a or b)\n    function limitLessThan(uint a, uint b) internal pure returns (uint c) {\n\n        if(a > b) return b;\n\n        return a;\n\n    }\n}\n\ncontract Owned {\n\n    address public owner;\n\n    address public newOwner;\n\n\n    event OwnershipTransferred(address indexed _from, address indexed _to);\n\n\n    constructor() public {\n\n        owner = msg.sender;\n\n    }\n\n\n    modifier onlyOwner {\n\n        require(msg.sender == owner);\n\n        _;\n\n    }\n\n\n    function transferOwnership(address _newOwner) public onlyOwner {\n\n        newOwner = _newOwner;\n\n    }\n\n    function acceptOwnership() public {\n\n        require(msg.sender == newOwner);\n\n       emit OwnershipTransferred(owner, newOwner);\n\n        owner = newOwner;\n\n        newOwner = address(0);\n\n    }\n\n}\n\n\n\ncontract HunterLabsToken3 is Owned{\n    \n    using SafeMath for uint;\n    using ExtendedMath for uint;\n\n\tstring public name = 'Hunterlabs Token';\n\tstring public symbol = 'HLT';\n\tstring public standard = 'Hunterlabs Token v2.0';\n    uint8 public decimals = 8;\n\tuint public totalSupply = 10 * 10**uint(decimals) ;\n    uint public circulatingSupply;\n    uint one = 1;\n    uint public latestDifficultyPeriodStarted;\n    uint public epochCount;//number of 'blocks' mined\n    uint public _BLOCKS_PER_READJUSTMENT = 1024;\n    uint public _BLOCKS_PER_READJUSTMENT_OF_SUPPLY = 10;\n\n    uint public _INFLATION_RATE = 100;\n    uint public _INFLATION_RATE_BASIS = 1000;\n\n    uint public reward_pool_cut = 0;\n    uint public z_holders_cut = 0;\n    uint public miners_cut = 0;\n    uint public reward_amount = totalSupply.mul(10).div(100);\n\n    uint public reward_pool_cut_pct = one.mul(75).div(100);\n    uint public z_holders_cut_pct = one.mul(15).div(100);\n    uint public miners_cut_pct = one.mul(10).div(100);\n\n    uint public  _MINIMUM_TARGET = 2**16;\n    uint public  _MAXIMUM_TARGET = 2**234;\n    uint public miningTarget;\n    uint public  _MINIMUM_DIFFICULTY = 1;\n    uint public  _MAXIMUM_DIFFICULTY = 54;\n    bool locked = false;\n    uint public miningDifficulty; //adjusts every 2016 epochs (or blocks)\n    bytes32 public challengeNumber;   //generate a new one when a new reward is minted\n    uint public rewardEra;\n    uint public maxSupplyForEra;\n    address public lastRewardTo;\n    uint public lastRewardAmount;\n    uint public lastRewardEthBlockNumber;\n    uint public tokensMinted;\n\n\t//transfer \n    mapping(bytes32 => bytes32) solutionForChallenge;\n    mapping(address => uint256) public balanceOf;\n    mapping(address => uint256) public balanceOfRewardPool;\n    mapping(address => uint256) public balanceOfVesting;\n    mapping(bytes32 => uint) rewardHashesFound; //the hash and the nonce\n    //allowance\n    mapping(address => mapping(address=>uint256)) public allowance;\n\n\tevent Transfer(\n        address indexed _from,\n        address indexed _to,\n        uint256 _value\n    );\n\n    event Approval(\n        address indexed _owner,\n        address indexed _spender,\n        uint256 _value\n    );\n    event Mint(address indexed from, \n        uint reward_amount, \n        uint epochCount, \n        bytes32 newChallengeNumber);\n\n\tconstructor(uint256 _initialSupply) public {                  \n        \n        // balanceOf[msg.sender] = _initialSupply;\n        // totalSupply = _initialSupply;   \n        // minter = msg.sender;\n\n        // totalSupply = 21000000 * 10**uint(decimals);\n        // totalSupply = 21 * 10 ** uint(decimals);\n        // totalSupply = 100;\n\n        if(locked) revert();\n        locked = true;\n\n        tokensMinted = 0;\n\n        rewardEra = 0;\n\n        circulatingSupply = 0;\n        \n        // miningDifficulty = _MINIMUM_DIFFICULTY;\n        miningTarget = _MAXIMUM_TARGET;\n\n        latestDifficultyPeriodStarted = block.number;\n\n        _startNewMiningEpoch();\n    }\n\n    function transfer(address _to, uint256 _value) public returns (bool success){\n    \t\n    \trequire(balanceOf[msg.sender] >= _value);\n        balanceOf[msg.sender] -= _value;\n        balanceOf[_to] += _value;\n        emit Transfer( msg.sender , _to, _value);\n        return true;\n    }\n\n    //approve\n    \n    function approve(address _spender,uint256 _value) public returns(bool success){\n        //allowance\n        allowance[msg.sender][_spender] =  _value;\n        emit Approval(msg.sender,_spender,_value);\n        return true;\n        \n    }\n \n    function transferFrom(address _from,address _to,uint256 _value) public returns (bool success){\n        \n        require(_value<=balanceOf[_from]);\n        require(_value <= allowance[_from][msg.sender]); \n        balanceOf[_from] -= _value;\n        balanceOf[_to] += _value;\n        allowance[_from][msg.sender] -= _value;\n        emit Transfer(_from,_to,_value);\n        return true;\n\n    }\n\n   function _startNewMiningEpoch() internal {\n\n      //if max supply for the era will be exceeded next reward round then enter the new era before that happens\n\n      //40 is the final reward era, almost all tokens minted\n      //once the final era is reached, more tokens will not be given out because the assert function\n      // if( tokensMinted.add(getMiningReward()) > maxSupplyForEra)\n      // {\n      //   rewardEra = rewardEra + 1;\n      // }\n\n      //set the next minted supply at which the era will change\n      // total supply is 2100000000000000  because of 8 decimal places\n      // maxSupplyForEra = totalSupply;\n\n      epochCount = epochCount.add(1);\n      \n      //every so often, readjust difficulty. Dont readjust when deploying\n      if(epochCount % _BLOCKS_PER_READJUSTMENT == 0)\n      {\n        _reAdjustDifficulty();\n      }\n\n      if(epochCount % _BLOCKS_PER_READJUSTMENT_OF_SUPPLY == 0){\n\n            if ( _INFLATION_RATE >= 10){\n                _INFLATION_RATE = _INFLATION_RATE.sub(one);\n            }\n\n        _reAdjustSupply();\n\n      }\n\n      //make the latest ethereum block hash a part of the next challenge for PoW to prevent pre-mining future blocks\n      //do this last since this is a protection mechanism in the mint() function\n      challengeNumber = blockhash(block.number - 1);\n    }\n\n    function _reAdjustSupply() internal {\n\n        totalSupply = circulatingSupply;\n        circulatingSupply = circulatingSupply.add(circulatingSupply.mul(_INFLATION_RATE).div(_INFLATION_RATE_BASIS));\n        totalSupply = circulatingSupply - totalSupply;\n    }\n\n    function _reAdjustDifficulty() internal {\n\n\n        uint ethBlocksSinceLastDifficultyPeriod = block.number - latestDifficultyPeriodStarted;\n        //assume 360 ethereum blocks per hour\n\n        //we want miners to spend 10 minutes to mine each 'block', about 60 ethereum blocks = one 0xbitcoin epoch\n        uint epochsMined = _BLOCKS_PER_READJUSTMENT; //256\n\n        // uint targetEthBlocksPerDiffPeriod = epochsMined * 60; //should be 60 times slower than ethereum\n        uint targetEthBlocksPerDiffPeriod = epochsMined; //should be 60 times slower than ethereum\n\n        //if there were less eth blocks passed in time than expected\n        if( ethBlocksSinceLastDifficultyPeriod < targetEthBlocksPerDiffPeriod )\n        {\n          uint excess_block_pct = (targetEthBlocksPerDiffPeriod.mul(100)).div( ethBlocksSinceLastDifficultyPeriod );\n          \n          uint excess_block_pct_extra = excess_block_pct.sub(100).limitLessThan(1000);\n          // If there were 5% more blocks mined than expected then this is 5.  If there were 100% more blocks mined than expected then this is 100.\n\n          //make it harder\n          miningTarget = miningTarget.sub(miningTarget.div(2000).mul(excess_block_pct_extra));   //by up to 50 %\n        }else{\n          uint shortage_block_pct = (ethBlocksSinceLastDifficultyPeriod.mul(100)).div( targetEthBlocksPerDiffPeriod );\n\n          uint shortage_block_pct_extra = shortage_block_pct.sub(100).limitLessThan(1000); //always between 0 and 1000\n\n          //make it easier\n          miningTarget = miningTarget.add(miningTarget.div(2000).mul(shortage_block_pct_extra));   //by up to 50 %\n        }\n\n\n        latestDifficultyPeriodStarted = block.number;\n\n        if(miningTarget < _MINIMUM_TARGET) //very difficult\n        {\n          miningTarget = _MINIMUM_TARGET;\n        }\n\n        if(miningTarget > _MAXIMUM_TARGET) //very easy\n        {\n          miningTarget = _MAXIMUM_TARGET;\n        }\n    }\n\n\n    function getMintDigest(uint256 nonce, bytes32 challenge_digest, bytes32 challenge_number) public view returns (bytes32 digesttest) {\n\n        bytes32 digest = keccak256(abi.encodePacked(challenge_number,msg.sender,nonce));\n        return digest;\n        \n      }\n\n      function checkMintSolution(uint256 nonce, bytes32 challenge_digest, bytes32 challenge_number, uint testTarget) public view returns (bool success) {\n\n          bytes32 digest = keccak256(abi.encodePacked(challenge_number,msg.sender,nonce));\n\n          if(uint256(digest) > testTarget) revert();\n\n          return (digest == challenge_digest);\n\n        }\n\n\nfunction mint(uint256 nonce, bytes32 challenge_digest) public returns (bool success) {\n\n            //the PoW must contain work that includes a recent ethereum block hash (challenge number) and the msg.sender's address to prevent MITM attacks\n            bytes32 digest =  keccak256(abi.encodePacked(challengeNumber, msg.sender, nonce));\n\n            //the challenge digest must match the expected\n            if (digest != challenge_digest) revert();\n\n            //the digest must be smaller than the target\n            if(uint256(digest) > miningTarget) revert();\n\n\n            //only allow one reward for each challenge\n            bytes32 solution = solutionForChallenge[challengeNumber];\n            solutionForChallenge[challengeNumber] = digest;\n            if(solution != 0x0) revert();  //prevent the same answer from awarding twice\n\n            reward_amount = getMiningReward();\n\n            miners_cut = reward_amount.mul(10).div(100);\n            reward_pool_cut = reward_pool_cut.add(reward_amount.mul(75).div(100));\n            z_holders_cut = z_holders_cut.add(reward_amount.mul(15).div(100));\n            \n            balanceOfRewardPool[address(this)] = balanceOfRewardPool[address(this)].add(reward_pool_cut);\n            balanceOfVesting[address(this)] = balanceOfVesting[address(this)].add(z_holders_cut);\n            balanceOf[msg.sender] = balanceOf[msg.sender].add(miners_cut);\n\n            tokensMinted = tokensMinted.add(reward_amount);\n            circulatingSupply = circulatingSupply + tokensMinted;\n            \n            //Cannot mint more tokens than there are\n            // assert(tokensMinted <= maxSupplyForEra);\n            //set readonly diagnostics data\n\n            lastRewardTo = msg.sender;\n            lastRewardAmount = miners_cut;\n            lastRewardEthBlockNumber = block.number;\n\n             _startNewMiningEpoch();\n\n           emit Mint(msg.sender, reward_amount, epochCount, challengeNumber );\n\n           return true;\n\n        }\n\n    //this is a recent ethreum block hash, used to prevent pre-mining future blocks\n    function getChallengeNumber() public view returns (bytes32) {\n        return challengeNumber;\n    }\n\n    //the number of zeroes the digest of the PoW solution requires.  Auto adjusts\n     function getMiningDifficulty() public view returns (uint) {\n         return _MAXIMUM_TARGET.div(miningTarget);\n    }\n\n    function getMiningTarget() public view returns (uint) {\n       return miningTarget;\n    }\n\n    function getMiningReward() public view returns (uint) {\n        return totalSupply.mul(10).div(100);\n    }\n\n    function getTotalSupply() public view returns (uint) {\n        return totalSupply;\n    }\n\n    // ------------------------------------------------------------------------\n\n    // Don't accept ETH\n\n    // ------------------------------------------------------------------------\n\n    function () external payable {\n\n        revert();\n\n    }\n\n\n}",
  "sourcePath": "/var/www/hunterlabs3/contracts/HunterLabsToken3.sol",
  "compiler": {
    "name": "solc",
    "version": "0.5.8+commit.23d335f2.Emscripten.clang"
  },
  "schemaVersion": "3.0.11",
  "updatedAt": "2019-08-22T09:35:29.217Z",
  "devdoc": {
    "methods": {}
  },
  "userdoc": {
    "methods": {}
  }
}